{
  "_format": "hh-sol-artifact-1",
  "contractName": "CustomDex",
  "sourceName": "contracts/DEx.sol",
  "abi": [
    {
      "inputs": [],
      "stateMutability": "nonpayable",
      "type": "constructor"
    },
    {
      "inputs": [],
      "name": "_historyIndex",
      "outputs": [
        {
          "internalType": "uint256",
          "name": "",
          "type": "uint256"
        }
      ],
      "stateMutability": "view",
      "type": "function"
    },
    {
      "inputs": [],
      "name": "getAllHistory",
      "outputs": [
        {
          "components": [
            {
              "internalType": "uint256",
              "name": "historyId",
              "type": "uint256"
            },
            {
              "internalType": "string",
              "name": "tokenA",
              "type": "string"
            },
            {
              "internalType": "string",
              "name": "tokenB",
              "type": "string"
            },
            {
              "internalType": "uint256",
              "name": "inputValue",
              "type": "uint256"
            },
            {
              "internalType": "uint256",
              "name": "outputValue",
              "type": "uint256"
            },
            {
              "internalType": "address",
              "name": "userAddress",
              "type": "address"
            }
          ],
          "internalType": "struct CustomDex.History[]",
          "name": "",
          "type": "tuple[]"
        }
      ],
      "stateMutability": "view",
      "type": "function"
    },
    {
      "inputs": [
        {
          "internalType": "string",
          "name": "_tokenName",
          "type": "string"
        },
        {
          "internalType": "address",
          "name": "_address",
          "type": "address"
        }
      ],
      "name": "getBalance",
      "outputs": [
        {
          "internalType": "uint256",
          "name": "",
          "type": "uint256"
        }
      ],
      "stateMutability": "view",
      "type": "function"
    },
    {
      "inputs": [],
      "name": "getEthBalance",
      "outputs": [
        {
          "internalType": "uint256",
          "name": "",
          "type": "uint256"
        }
      ],
      "stateMutability": "view",
      "type": "function"
    },
    {
      "inputs": [
        {
          "internalType": "string",
          "name": "_tokenName",
          "type": "string"
        }
      ],
      "name": "getName",
      "outputs": [
        {
          "internalType": "string",
          "name": "",
          "type": "string"
        }
      ],
      "stateMutability": "view",
      "type": "function"
    },
    {
      "inputs": [
        {
          "internalType": "string",
          "name": "_tokenName",
          "type": "string"
        }
      ],
      "name": "getTokenAddress",
      "outputs": [
        {
          "internalType": "address",
          "name": "",
          "type": "address"
        }
      ],
      "stateMutability": "view",
      "type": "function"
    },
    {
      "inputs": [
        {
          "internalType": "string",
          "name": "_tokenName",
          "type": "string"
        }
      ],
      "name": "getTotalSupply",
      "outputs": [
        {
          "internalType": "uint256",
          "name": "",
          "type": "uint256"
        }
      ],
      "stateMutability": "view",
      "type": "function"
    },
    {
      "inputs": [
        {
          "internalType": "string",
          "name": "_tokenName",
          "type": "string"
        }
      ],
      "name": "swapEthToToken",
      "outputs": [
        {
          "internalType": "uint256",
          "name": "",
          "type": "uint256"
        }
      ],
      "stateMutability": "payable",
      "type": "function"
    },
    {
      "inputs": [
        {
          "internalType": "string",
          "name": "_tokenName",
          "type": "string"
        },
        {
          "internalType": "uint256",
          "name": "_amount",
          "type": "uint256"
        }
      ],
      "name": "swapTokenToEth",
      "outputs": [
        {
          "internalType": "uint256",
          "name": "",
          "type": "uint256"
        }
      ],
      "stateMutability": "nonpayable",
      "type": "function"
    },
    {
      "inputs": [
        {
          "internalType": "string",
          "name": "_srcTokenName",
          "type": "string"
        },
        {
          "internalType": "string",
          "name": "_destTokenName",
          "type": "string"
        },
        {
          "internalType": "uint256",
          "name": "_amount",
          "type": "uint256"
        }
      ],
      "name": "swapTokenToToken",
      "outputs": [],
      "stateMutability": "nonpayable",
      "type": "function"
    },
    {
      "inputs": [
        {
          "internalType": "string",
          "name": "",
          "type": "string"
        }
      ],
      "name": "tokenInstanceMap",
      "outputs": [
        {
          "internalType": "contract ERC20",
          "name": "",
          "type": "address"
        }
      ],
      "stateMutability": "view",
      "type": "function"
    },
    {
      "inputs": [
        {
          "internalType": "uint256",
          "name": "",
          "type": "uint256"
        }
      ],
      "name": "tokens",
      "outputs": [
        {
          "internalType": "string",
          "name": "",
          "type": "string"
        }
      ],
      "stateMutability": "view",
      "type": "function"
    }
  ],
  "bytecode": "0x600a6101809081526915195d1a195c881554d160b21b6101a052608090815260036101c09081526221272160e91b6101e05260a0526008610200818152672aa9a21021b7b4b760c11b6102205260c0526005610240908152640e6e88aa8960db1b6102605260e0526004610280908152632a2927a760e11b6102a05261010052600b6102c09081526a26b0ba34b1902a37b5b2b760a91b6102e05261012052600961030090815268534849424120494e5560b81b61032052610140526103806040526007610340908152660556e69737761760cc1b6103605261016052620000ea91600091620001ff565b50655af3107a40006002553480156200010257600080fd5b5060005b600054811015620001f8576000808281548110620001285762000128620002e4565b9060005260206000200160008381548110620001485762000148620002e4565b9060005260206000200160405162000160906200025c565b6200016d929190620003bb565b604051809103906000f0801580156200018a573d6000803e3d6000fd5b50905080600160008481548110620001a657620001a6620002e4565b90600052602060002001604051620001bf9190620003ed565b90815260405190819003602001902080546001600160a01b03929092166001600160a01b03199092169190911790555060010162000106565b50620005a2565b8280548282559060005260206000209081019282156200024a579160200282015b828111156200024a5782518290620002399082620004d6565b509160200191906001019062000220565b50620002589291506200026a565b5090565b610bd780620017d883390190565b80821115620002585760006200028182826200028b565b506001016200026a565b5080546200029990620002fa565b6000825580601f10620002aa575050565b601f016020900490600052602060002090810190620002ca9190620002cd565b50565b5b80821115620002585760008155600101620002ce565b634e487b7160e01b600052603260045260246000fd5b600181811c908216806200030f57607f821691505b6020821081036200033057634e487b7160e01b600052602260045260246000fd5b50919050565b600081546200034581620002fa565b8085526020600183811680156200036557600181146200038057620003b0565b60ff1985168884015283151560051b880183019550620003b0565b866000528260002060005b85811015620003a85781548a82018601529083019084016200038b565b890184019650505b505050505092915050565b604081526000620003d0604083018562000336565b8281036020840152620003e4818562000336565b95945050505050565b6000808354620003fd81620002fa565b600182811680156200041857600181146200042e576200045f565b60ff19841687528215158302870194506200045f565b8760005260208060002060005b85811015620004565781548a8201529084019082016200043b565b50505082870194505b50929695505050505050565b634e487b7160e01b600052604160045260246000fd5b601f821115620004d1576000816000526020600020601f850160051c81016020861015620004ac5750805b601f850160051c820191505b81811015620004cd57828155600101620004b8565b5050505b505050565b81516001600160401b03811115620004f257620004f26200046b565b6200050a81620005038454620002fa565b8462000481565b602080601f831160018114620005425760008415620005295750858301515b600019600386901b1c1916600185901b178555620004cd565b600085815260208120601f198616915b82811015620005735788860151825594840194600190910190840162000552565b5085821015620005925787850151600019600388901b60f8161c191681555b5050505050600190811b01905550565b61122680620005b26000396000f3fe6080604052600436106100a75760003560e01c806370ed0ada1161006457806370ed0ada1461017757806389f4b3171461018a578063a93325ed146101aa578063bf015aae14610203578063c409123614610225578063db6f63ee1461024557600080fd5b806319b3c12d146100ac57806339c5891a146100d55780634f64b2be146100f75780635463109e1461012457806363fcf7c5146101445780636932cf8114610157575b600080fd5b3480156100b857600080fd5b506100c260035481565b6040519081526020015b60405180910390f35b3480156100e157600080fd5b506100ea610265565b6040516100cc9190610c4f565b34801561010357600080fd5b50610117610112366004610d09565b6104d5565b6040516100cc9190610d22565b34801561013057600080fd5b506100c261013f366004610dfa565b610581565b6100c2610152366004610dfa565b61060c565b34801561016357600080fd5b50610117610172366004610dfa565b6106f2565b34801561018357600080fd5b50476100c2565b34801561019657600080fd5b506100c26101a5366004610e37565b61077f565b3480156101b657600080fd5b506101eb6101c5366004610dfa565b80516020818301810180516001825292820191909301209152546001600160a01b031681565b6040516001600160a01b0390911681526020016100cc565b34801561020f57600080fd5b5061022361021e366004610e95565b61080e565b005b34801561023157600080fd5b506101eb610240366004610dfa565b610951565b34801561025157600080fd5b506100c2610260366004610f02565b610982565b6003546060906000808267ffffffffffffffff81111561028757610287610d35565b6040519080825280602002602001820160405280156102fa57816020015b6102e76040518060c00160405280600081526020016060815260200160608152602001600081526020016000815260200160006001600160a01b031681525090565b8152602001906001900390816102a55790505b50905060005b838110156104cd576000610315826001610f5d565b90506000600460008381526020019081526020016000206040518060c00160405290816000820154815260200160018201805461035190610f70565b80601f016020809104026020016040519081016040528092919081815260200182805461037d90610f70565b80156103ca5780601f1061039f576101008083540402835291602001916103ca565b820191906000526020600020905b8154815290600101906020018083116103ad57829003601f168201915b505050505081526020016002820180546103e390610f70565b80601f016020809104026020016040519081016040528092919081815260200182805461040f90610f70565b801561045c5780601f106104315761010080835404028352916020019161045c565b820191906000526020600020905b81548152906001019060200180831161043f57829003601f168201915b505050918352505060038201546020820152600482015460408201526005909101546001600160a01b0316606090910152845190915081908590879081106104a6576104a6610faa565b602002602001018190525084806104bc90610fc0565b955050600190920191506103009050565b509392505050565b600081815481106104e557600080fd5b90600052602060002001600091509050805461050090610f70565b80601f016020809104026020016040519081016040528092919081815260200182805461052c90610f70565b80156105795780601f1061054e57610100808354040283529160200191610579565b820191906000526020600020905b81548152906001019060200180831161055c57829003601f168201915b505050505081565b60006001826040516105939190610fd9565b9081526040805160209281900383018120546318160ddd60e01b825291516001600160a01b03909216926318160ddd926004808401938290030181865afa1580156105e2573d6000803e3d6000fd5b505050506040513d601f19601f820116820180604052508101906106069190610ff5565b92915050565b60025460009034908290610620908361100e565b61063290670de0b6b3a7640000611030565b90506001846040516106449190610fd9565b9081526040519081900360200181205463a9059cbb60e01b8252336004830152602482018390526001600160a01b03169063a9059cbb906044016020604051808303816000875af115801561069d573d6000803e3d6000fd5b505050506040513d601f19601f820116820180604052508101906106c19190611047565b6106ca57600080fd5b60408051808201909152600581526422ba3432b960d91b60208201526104cd85828585610b90565b60606001826040516107049190610fd9565b90815260408051918290036020018220546306fdde0360e01b835290516001600160a01b03909116916306fdde039160048083019260009291908290030181865afa158015610757573d6000803e3d6000fd5b505050506040513d6000823e601f3d908101601f191682016040526106069190810190611069565b60006001836040516107919190610fd9565b908152604051908190036020018120546370a0823160e01b82526001600160a01b03848116600484015216906370a0823190602401602060405180830381865afa1580156107e3573d6000803e3d6000fd5b505050506040513d601f19601f820116820180604052508101906108079190610ff5565b9392505050565b60018360405161081e9190610fd9565b908152604051908190036020018120546323b872dd60e01b8252336004830152306024830152604482018390526001600160a01b0316906323b872dd906064016020604051808303816000875af115801561087d573d6000803e3d6000fd5b505050506040513d601f19601f820116820180604052508101906108a19190611047565b6108aa57600080fd5b6001826040516108ba9190610fd9565b9081526040519081900360200181205463a9059cbb60e01b8252336004830152602482018390526001600160a01b03169063a9059cbb906044016020604051808303816000875af1158015610913573d6000803e3d6000fd5b505050506040513d601f19601f820116820180604052508101906109379190611047565b61094057600080fd5b61094c83838384610b90565b505050565b60006001826040516109639190610fd9565b908152604051908190036020019020546001600160a01b031692915050565b600080610997670de0b6b3a76400008461100e565b90506000600254826109a99190611030565b9050804710156109ff5760405162461bcd60e51b815260206004820152601d60248201527f4465782069732072756e6e696e67206c6f77206f6e2062616c616e6365000000604482015260640160405180910390fd5b600185604051610a0f9190610fd9565b9081526040519081900360200181205463095ea7b360e01b8252306004830152602482018690526001600160a01b03169063095ea7b3906044016020604051808303816000875af1158015610a68573d6000803e3d6000fd5b505050506040513d601f19601f82011682018060405250810190610a8c9190611047565b610a9557600080fd5b604051339082156108fc029083906000818181858888f19350505050158015610ac2573d6000803e3d6000fd5b50600185604051610ad39190610fd9565b908152604051908190036020018120546323b872dd60e01b8252336004830152306024830152604482018690526001600160a01b0316906323b872dd906064016020604051808303816000875af1158015610b32573d6000803e3d6000fd5b505050506040513d601f19601f82011682018060405250810190610b569190611047565b610b5f57600080fd5b60408051808201909152600581526422ba3432b960d91b6020820152610b8786828585610b90565b50949350505050565b60038054906000610ba083610fc0565b9091555050600354600081815260046020526040902081815560018101610bc78782611130565b5060028101610bd68682611130565b50600481019290925550600381019190915560050180546001600160a01b031916331790555050565b60005b83811015610c1a578181015183820152602001610c02565b50506000910152565b60008151808452610c3b816020860160208601610bff565b601f01601f19169290920160200192915050565b600060208083018184528085518083526040925060408601915060408160051b87010184880160005b83811015610cfb57603f19898403018552815160c08151855288820151818a870152610ca682870182610c23565b9150508782015185820389870152610cbe8282610c23565b606084810151908801526080808501519088015260a0938401516001600160a01b0316939096019290925250509386019390860190600101610c78565b509098975050505050505050565b600060208284031215610d1b57600080fd5b5035919050565b6020815260006108076020830184610c23565b634e487b7160e01b600052604160045260246000fd5b604051601f8201601f1916810167ffffffffffffffff81118282101715610d7457610d74610d35565b604052919050565b600067ffffffffffffffff821115610d9657610d96610d35565b50601f01601f191660200190565b600082601f830112610db557600080fd5b8135610dc8610dc382610d7c565b610d4b565b818152846020838601011115610ddd57600080fd5b816020850160208301376000918101602001919091529392505050565b600060208284031215610e0c57600080fd5b813567ffffffffffffffff811115610e2357600080fd5b610e2f84828501610da4565b949350505050565b60008060408385031215610e4a57600080fd5b823567ffffffffffffffff811115610e6157600080fd5b610e6d85828601610da4565b92505060208301356001600160a01b0381168114610e8a57600080fd5b809150509250929050565b600080600060608486031215610eaa57600080fd5b833567ffffffffffffffff80821115610ec257600080fd5b610ece87838801610da4565b94506020860135915080821115610ee457600080fd5b50610ef186828701610da4565b925050604084013590509250925092565b60008060408385031215610f1557600080fd5b823567ffffffffffffffff811115610f2c57600080fd5b610f3885828601610da4565b95602094909401359450505050565b634e487b7160e01b600052601160045260246000fd5b8082018082111561060657610606610f47565b600181811c90821680610f8457607f821691505b602082108103610fa457634e487b7160e01b600052602260045260246000fd5b50919050565b634e487b7160e01b600052603260045260246000fd5b600060018201610fd257610fd2610f47565b5060010190565b60008251610feb818460208701610bff565b9190910192915050565b60006020828403121561100757600080fd5b5051919050565b60008261102b57634e487b7160e01b600052601260045260246000fd5b500490565b808202811582820484141761060657610606610f47565b60006020828403121561105957600080fd5b8151801515811461080757600080fd5b60006020828403121561107b57600080fd5b815167ffffffffffffffff81111561109257600080fd5b8201601f810184136110a357600080fd5b80516110b1610dc382610d7c565b8181528560208385010111156110c657600080fd5b6110d7826020830160208601610bff565b95945050505050565b601f82111561094c576000816000526020600020601f850160051c810160208610156111095750805b601f850160051c820191505b8181101561112857828155600101611115565b505050505050565b815167ffffffffffffffff81111561114a5761114a610d35565b61115e816111588454610f70565b846110e0565b602080601f831160018114611193576000841561117b5750858301515b600019600386901b1c1916600185901b178555611128565b600085815260208120601f198616915b828110156111c2578886015182559484019460019091019084016111a3565b50858210156111e05787850151600019600388901b60f8161c191681555b5050505050600190811b0190555056fea2646970667358221220a8e573a0c7f9e0c95417b791065af0d9846b78fd2b1863023dd70eb95c208c7d64736f6c6343000818003360806040523480156200001157600080fd5b5060405162000bd738038062000bd78339810160408190526200003491620002b7565b81816003620000448382620003b2565b506004620000538282620003b2565b505050620000723369d3c21bcecceda10000006200007a60201b60201c565b5050620004a6565b6001600160a01b038216620000aa5760405163ec442f0560e01b8152600060048201526024015b60405180910390fd5b620000b860008383620000bc565b5050565b6001600160a01b038316620000eb578060026000828254620000df91906200047e565b909155506200015f9050565b6001600160a01b03831660009081526020819052604090205481811015620001405760405163391434e360e21b81526001600160a01b03851660048201526024810182905260448101839052606401620000a1565b6001600160a01b03841660009081526020819052604090209082900390555b6001600160a01b0382166200017d576002805482900390556200019c565b6001600160a01b03821660009081526020819052604090208054820190555b816001600160a01b0316836001600160a01b03167fddf252ad1be2c89b69c2b068fc378daa952ba7f163c4a11628f55a4df523b3ef83604051620001e291815260200190565b60405180910390a3505050565b634e487b7160e01b600052604160045260246000fd5b600082601f8301126200021757600080fd5b81516001600160401b0380821115620002345762000234620001ef565b604051601f8301601f19908116603f011681019082821181831017156200025f576200025f620001ef565b81604052838152602092508660208588010111156200027d57600080fd5b600091505b83821015620002a1578582018301518183018401529082019062000282565b6000602085830101528094505050505092915050565b60008060408385031215620002cb57600080fd5b82516001600160401b0380821115620002e357600080fd5b620002f18683870162000205565b935060208501519150808211156200030857600080fd5b50620003178582860162000205565b9150509250929050565b600181811c908216806200033657607f821691505b6020821081036200035757634e487b7160e01b600052602260045260246000fd5b50919050565b601f821115620003ad576000816000526020600020601f850160051c81016020861015620003885750805b601f850160051c820191505b81811015620003a95782815560010162000394565b5050505b505050565b81516001600160401b03811115620003ce57620003ce620001ef565b620003e681620003df845462000321565b846200035d565b602080601f8311600181146200041e5760008415620004055750858301515b600019600386901b1c1916600185901b178555620003a9565b600085815260208120601f198616915b828110156200044f578886015182559484019460019091019084016200042e565b50858210156200046e5787850151600019600388901b60f8161c191681555b5050505050600190811b01905550565b80820180821115620004a057634e487b7160e01b600052601160045260246000fd5b92915050565b61072180620004b66000396000f3fe608060405234801561001057600080fd5b50600436106100935760003560e01c8063313ce56711610066578063313ce567146100fe57806370a082311461010d57806395d89b4114610136578063a9059cbb1461013e578063dd62ed3e1461015157600080fd5b806306fdde0314610098578063095ea7b3146100b657806318160ddd146100d957806323b872dd146100eb575b600080fd5b6100a061018a565b6040516100ad919061056a565b60405180910390f35b6100c96100c43660046105d5565b61021c565b60405190151581526020016100ad565b6002545b6040519081526020016100ad565b6100c96100f93660046105ff565b610236565b604051601281526020016100ad565b6100dd61011b36600461063b565b6001600160a01b031660009081526020819052604090205490565b6100a061025a565b6100c961014c3660046105d5565b610269565b6100dd61015f36600461065d565b6001600160a01b03918216600090815260016020908152604080832093909416825291909152205490565b60606003805461019990610690565b80601f01602080910402602001604051908101604052809291908181526020018280546101c590610690565b80156102125780601f106101e757610100808354040283529160200191610212565b820191906000526020600020905b8154815290600101906020018083116101f557829003601f168201915b5050505050905090565b60003361022a818585610277565b60019150505b92915050565b600033610244848285610289565b61024f85858561030c565b506001949350505050565b60606004805461019990610690565b60003361022a81858561030c565b610284838383600161036b565b505050565b6001600160a01b03838116600090815260016020908152604080832093861683529290522054600019811461030657818110156102f757604051637dc7a0d960e11b81526001600160a01b038416600482015260248101829052604481018390526064015b60405180910390fd5b6103068484848403600061036b565b50505050565b6001600160a01b03831661033657604051634b637e8f60e11b8152600060048201526024016102ee565b6001600160a01b0382166103605760405163ec442f0560e01b8152600060048201526024016102ee565b610284838383610440565b6001600160a01b0384166103955760405163e602df0560e01b8152600060048201526024016102ee565b6001600160a01b0383166103bf57604051634a1406b160e11b8152600060048201526024016102ee565b6001600160a01b038085166000908152600160209081526040808320938716835292905220829055801561030657826001600160a01b0316846001600160a01b03167f8c5be1e5ebec7d5bd14f71427d1e84f3dd0314c0f7b2291e5b200ac8c7c3b9258460405161043291815260200190565b60405180910390a350505050565b6001600160a01b03831661046b57806002600082825461046091906106ca565b909155506104dd9050565b6001600160a01b038316600090815260208190526040902054818110156104be5760405163391434e360e21b81526001600160a01b038516600482015260248101829052604481018390526064016102ee565b6001600160a01b03841660009081526020819052604090209082900390555b6001600160a01b0382166104f957600280548290039055610518565b6001600160a01b03821660009081526020819052604090208054820190555b816001600160a01b0316836001600160a01b03167fddf252ad1be2c89b69c2b068fc378daa952ba7f163c4a11628f55a4df523b3ef8360405161055d91815260200190565b60405180910390a3505050565b60006020808352835180602085015260005b818110156105985785810183015185820160400152820161057c565b506000604082860101526040601f19601f8301168501019250505092915050565b80356001600160a01b03811681146105d057600080fd5b919050565b600080604083850312156105e857600080fd5b6105f1836105b9565b946020939093013593505050565b60008060006060848603121561061457600080fd5b61061d846105b9565b925061062b602085016105b9565b9150604084013590509250925092565b60006020828403121561064d57600080fd5b610656826105b9565b9392505050565b6000806040838503121561067057600080fd5b610679836105b9565b9150610687602084016105b9565b90509250929050565b600181811c908216806106a457607f821691505b6020821081036106c457634e487b7160e01b600052602260045260246000fd5b50919050565b8082018082111561023057634e487b7160e01b600052601160045260246000fdfea2646970667358221220e6e95f044ec3a3793234e1ea4de119a2af70c802d2fba4f221da7b2c9ea8389d64736f6c63430008180033",
  "linkReferences": {},
  "deployedLinkReferences": {}
}